:1009B800B4AEBFDAD5FDB3A3A3ACCAE4C8EBB4FDAB
:1009C800CFD4CABECAFDD7D6A3A8CFDED6C6D4DA3E
:1009D8003230B8F6D2D4C4DAA3A9A3BA002573007A
:0F09E8000D0ACAFDD7D6B3A4B6C825640D0A0000
:10096E0012000612001C7BFF7A0979B812008875F6
:10097E00250075260075273C7BFF7A0979E5120460
:10098E00047B007A00793C120A248E258F267BFF89
:10099E007A0979E8120088755001E550B401C77BD9
:0A09AE00007A00793C12088C80F0FA
:0A0A6E00021C0000011E00011F0021
:10000600759850758920758780758DF3758BF3D239
:06001600ACD2AFD28E2235
:0C0A7C00C2AC8F993099FDC299D2AC2217
:050A9300AE07020A7C21
:1009F700E51D451C60FAC2AC7408251EF8E6FBE548
:100A07001E2401FFE433FE7C007D141206C68D1EF2
:0C0A1700E51D151D7002151CD2ACAF03CC
:010A230022B0
:030AA1000209F750
:03002300020916B9
:10091600C0E0C0F0C0D075D000C000C004C005C0A3
:1009260006C007C2AC30982DC298C3E51D9414E5E5
:100936001C940050207408251FF8A699E51F240171
:10094600FFE433FE7C007D141206C68D1F051DE5EF
:100956001D7002051CD2ACD007D006D005D004D03D
:0809660000D0D0D0F0D0E03247
:100A4C00C0F9A4B0999282F880908883C6A1868E52
:010A5C000099
:0B0A8800EF1FAC0670011E4C70F62240
:06088C008B228A2389245F
:10089200E4F526F525AB22AA23A924120A24C3E5EE
:1008A200259FE49E506DE4F527F528E4F526AF2652
:1008B2007480A807088002C313D8FCF4F590AB2219
:1008C200AA23A924120A24E5252526FDE433FCCF18
:1008D200CDCFCECCCE1206C6AB22AA23A9248D82BE
:1008E2008C83120699900A1C93F5807F647E001215
:1008F2000A887580FF0526E526C3940840B00528BE
:10090200E52870020527C39464E5279400409C05FE
:03091200258082BB
:0109150022BF
:030A78000150002A
:07001C00D288D2A8D2AF2266
:03000300020A9D51
:040A9D00755000325E
:03000000020800F3
:0C080000787FE4F6D8FD758151020847AE
:10069900BB010CE58229F582E5833AF583E0225016
:1006A90006E92582F8E622BBFE06E92582F8E22260
:0D06B900E58229F582E5833AF583E493227A
:1006C600BC000BBE0029EF8DF084FFADF022E4CC18
:1006D600F875F008EF2FFFEE33FEEC33FCEE9DECE1
:1006E600984005FCEE9DFE0FD5F0E9E4CEFD22ED27
:1006F600F8F5F0EE8420D21CFEADF075F008EF2F71
:10070600FFED33FD4007985006D5F0F222C398FD61
:050716000FD5F0EA22FE
:10002600E5312425F8E605312278223007027825C5
:10003600E475F00112079602071B2000EB7F2ED213
:10004600008018EF540F2490D43440D4FF30040BB2
:10005600EF24BFB41A0050032461FFE53260021595
:10006600320535E5357002053430070D7822E47522
:10007600F001120796EF020734020A937403D207BF
:100086008003E4C207F5318B228A238924E4F53202
:10009600F534F535E53260077F2012006180F5758D
:1000A60033FFC201C200C202C203C205C206C208B1
:1000B60012002FFF700D3007057F00120072AF355A
:1000C600AE3422B4255FC2D5C20412002FFF24D05D
:1000D600B40A00501A75F00A783230D50508B6FF12
:1000E6000106C6A426F620D5047002D20380D924C0
:1000F600CFB41A00EF5004C2E5D204020272D20154
:1001060080C6D20080C0D20280BCD2D580BAD205C9
:1001160080B47F201200612002077401B5320040CE
:10012600F1120026FF12006102009AD208D2068060
:1001360095120026FB120026FA120026F94A4B7089
:100146000679437A037BFF20022EE532602A7E0081
:100156008E8275830012069960060EEE653370F086
:10016600C2D5EBC0E0EAC0E0E9C0E0EE1202B9D0C9
:10017600E0F9D0E0FAD0E0FB12071BFF60AAEBC063
:10018600E0EAC0E0E9C0E0120061D0E02401F9D065
:10019600E03400FAD0E0FBE5330460DCD533D980E7
:1001A600877BFF7A0279B5D202809C79108002792A
:1001B60008C206C2088008D2D5790A8004790AC224
:1001C600D5E533047002F533E4FAFDFEFF1200268E
:1001D600FC7B08200113120026FD7B1030000A125A
:1001E6000026FE120026FF7B20EC3382D592D550E6
:1001F60013C3E43000069FFFE49EFEE42001039D46
:10020600FDE49CFCE4CBF8C201EC700CCFCECDCC67
:10021600E824F8F870F38017C3EF33FFEE33FEEDF2
:1002260033FDEC33FCEB33FB994002FB0FD8E9EBD3
:10023600300105F8D0E0C448B201C0E00AEC4D4EEA
:100246004F78207B0070C2EAB5330040BCC0E01294
:1002560002BBD0F0D0E0200104C4C0E0C4B201C0AB
:10026600F012004AD0F0D5F0EB02009A1207B60160
:10027600375301B15801084C01044201B54F01BD85
:0F0286004401BD49011D4301C35501A74601A70E
:100295004501A747036350010C2D01102E01332B97
:1002A500011423013120034C2A00CC480000012B06
:1002B5003F3F3F00790AA2D5200314300509B91044
:1002C500020404B9080104A2D52006025001042045
:1002D50002689202B532005034C0E07F2030031925
:1002E5007F30A20272067205500F120312C202C2BB
:1002F50006C205C2087F30800F300503E9C0E01251
:100305000061300503D0E0F9D0E0B532CC300517F7
:100315007F30B9100C1200617F583004077F788058
:1003250003B908031200613002057F2D0200617FC9
:10033500202008F87F2B2006F322920280CF286E1A
:10034500756C6C2900D2011200263001F8C20178C3
:100355003230D50108F60200CC2D50434958120021
:10036500262403B405004001E490035E9312005275
:0D037500743A120052D2037532040201B135
:10038200E53730030104F823282425F822782230A7
:1003920003027825E475F00112079602071B60EC50
:1003A200C53B7002153A14C53B200304FF020A98AC
:1003B200782274FFF5F00207A6FF020A39E53860D9
:1003C20006D538037F002220030F120A5DEF600872
:1003D200053BE53B7002053A22782212078D12078F
:1003E2001BFF60E97822E475F00112079680DE12A5
:1003F20003C9EFC0E01203BBD0E040F380A0D203F8
:100402008002C2038B228A238924E4F539F537F569
:100412003AF53B753800C202C200C201C20412039F
:100422008FFF7005AF397E0022B4253012038FFF93
:1004320024D0B40A00500C75F00AC538A42538F54A
:100442003880E924CFB41A00EF5002C2E5020665F3
:10045200D20180D8D20080D4D20480D0EF1203BB64
:1004620050081203F1EF600E80A9EFC0E01203C939
:10047200D0E06F609EEF60741203A080A71203C9E0
:10048200EF6069E5387007053880031203C9EF6031
:100492001420040E120382E475F001120796EF1283
:1004A2000734D538E62004040537053980BA12032B
:1004B200BFEFC0E01203BBD0E050041203A0E4FF80
:1004C20020040E120382E475F001120796EF120760
:1004D20034EF70DA20040405370539808BE5386083
:1004E2000205381203F11203BFEF70C6300304E4B1
:1004F2001203A0E53960030204267EFF7FFF22205B
:10050200041174FFFCFDFEFF12038212078D120715
:10051200730537020415D0E080D27900800A791081
:10052200800679088002790AD205E538600205382A
:10053200E9C0E01203F1EF60DD1203C9BF2D04D25E
:10054200028003BF2B091203F1EF60CA1203BFD06E
:10055200E0B40A028033B40802802EBF3027700252
:100562007408C205C0E01203BFD0E0BF7802800366
:10057200BF58160538D538028007D53804D2058011
:100582000B741080197002740ABF000AEFF8E4FCC1
:10059200FDFEFF020618C0E0EF1203A0D0E0F9E46E
:1005A200FCFDFEFFE9C0E0ECC0E0EDC0E0EEC0E023
:1005B200EFC0E01203BFEFF8D0E0FFD0E0FED0E0E2
:1005C200FDD0E0FCD0F0E8604DB461004007B47BA0
:1005D200005002C2E524D0503DFA24F6500724F917
:1005E2005034240AFAEAB5F000502BCFA9F0A42F18
:1005F200FF92D5E9C5F0CEA4A2D53EFE92D5E9C5BB
:10060200F0CDA4A2D53DFD92D5E9C5F0CCA4A2D5EA
:0B0612003CFCC205808EE8C0E0200424
:10061D002A200508053930020312076512038212DC
:10062D00078D053720000B20010DEE8FF0120746C8
:10063D0080091207738004EF120734D0E01203A073
:10064D0002041520041012038212078D0537E53AB6
:10065D00853BF012074680E81207B604DF530520EC
:10066D005804564C045242042E4805244F05284484
:10067D00047F43051C49052855050146050145051F
:0C068D000147045A2A06504E0000045E8B
:100A2400E4FFFE12071B600C0FEF70010E09E97062
:050A3400F20A80EF2230
:10080C0002096EE493A3F8E493A34003F68001F28B
:10081C0008DFF48029E493A3F85407240CC8C333ED
:10082C00C4540F4420C8834004F456800146F6DFBC
:10083C00E4800B0102040810204080900A6EE47ED4
:10084C00019360BCA3FF543F30E509541FFEE493B1
:10085C00A360010ECF54C025E060A840B8E493A378
:10086C00FAE493A3F8E493A3C8C582C8CAC583CAA3
:10087C00F0A3C8C582C8CAC583CADFE9DEE780BE5B
:010A7B00007A
:10071B00BB010689828A83E0225002E722BBFE02DC
:09072B00E32289828A83E493220F
:10073400BB010689828A83F0225002F722BBFE01A4
:02074400F3229E
:10074600BB010A89828A83F0E5F0A3F0225006F7FE
:0F07560009A7F01922BBFE06F3E5F009F31922FB
:0E076500C3E49FFFE49EFEE49DFDE49CFC22A5
:10077300BB010789828A830207E85005E9F802076B
:0A078300DCBBFE05E9F80207F422D2
:09078D00E6FB08E6FA08E6F92291
:10079600FAE6FB0808E6F925F0F618E6CA3AF62264
:1007A600FAE6FB0808E625F0F9F618E63AFAF62224
:1007B600D083D082F8E4937012740193700DA3A3D2
:1007C60093F8740193F5828883E4737402936860E6
:0607D600EFA3A3A380DFE6
:100A5D0010090B120AA1BF0D027F0A020A93AF51B2
:010A6D002266
:050A98008F51D209227C
:100A3900EFC394094005EF940E4003BF2003D38010
:030A490001C322C4
:0C07DC00ECF608EDF608EEF608EFF62249
:0C07E800ECF0A3EDF0A3EEF0A3EFF02284
:0C07F400ECF208EDF208EEF208EFF22241
:00000001FF
