BL51 BANKED LINKER/LOCATER V6.22.2.0                                                    05/25/2023  20:47:41  PAGE 1


BL51 BANKED LINKER/LOCATER V6.22.2.0, INVOKED BY:
D:\KEIL_V5\C51\BIN\BL51.EXE .\Objects\main.obj, .\Objects\uart.obj, .\Objects\seg.obj, .\Objects\exit0.obj TO .\Objects\
>> uart PRINT (.\Listings\uart.m51) RAMSIZE (256)


MEMORY MODEL: SMALL


INPUT MODULES INCLUDED:
  .\Objects\main.obj (MAIN)
  .\Objects\uart.obj (UART)
  .\Objects\seg.obj (SEG)
  .\Objects\exit0.obj (EXIT0)
  D:\KEIL_V5\C51\LIB\C51S.LIB (?C_STARTUP)
  D:\KEIL_V5\C51\LIB\C51S.LIB (?C?CLDOPTR)
  D:\KEIL_V5\C51\LIB\C51S.LIB (?C?UIDIV)
  D:\KEIL_V5\C51\LIB\C51S.LIB (PRINTF)
  D:\KEIL_V5\C51\LIB\C51S.LIB (SCANF)
  D:\KEIL_V5\C51\LIB\C51S.LIB (STRLEN)
  D:\KEIL_V5\C51\LIB\C51S.LIB (?C_INIT)
  D:\KEIL_V5\C51\LIB\C51S.LIB (?C?CLDPTR)
  D:\KEIL_V5\C51\LIB\C51S.LIB (?C?CSTPTR)
  D:\KEIL_V5\C51\LIB\C51S.LIB (?C?ISTPTR)
  D:\KEIL_V5\C51\LIB\C51S.LIB (?C?LNEG)
  D:\KEIL_V5\C51\LIB\C51S.LIB (?C?LSTPTR)
  D:\KEIL_V5\C51\LIB\C51S.LIB (?C?PLDIDATA)
  D:\KEIL_V5\C51\LIB\C51S.LIB (?C?PLDIIDATA)
  D:\KEIL_V5\C51\LIB\C51S.LIB (?C?PILDIDATA)
  D:\KEIL_V5\C51\LIB\C51S.LIB (?C?CCASE)
  D:\KEIL_V5\C51\LIB\C51S.LIB (GETCHAR)
  D:\KEIL_V5\C51\LIB\C51S.LIB (UNGETC)
  D:\KEIL_V5\C51\LIB\C51S.LIB (ISSPACE)
  D:\KEIL_V5\C51\LIB\C51S.LIB (?C?LSTIDATA)
  D:\KEIL_V5\C51\LIB\C51S.LIB (?C?LSTXDATA)
  D:\KEIL_V5\C51\LIB\C51S.LIB (?C?LSTPDATA)


LINK MAP OF MODULE:  .\Objects\uart (MAIN)


            TYPE    BASE      LENGTH    RELOCATION   SEGMENT NAME
            -----------------------------------------------------

            * * * * * * *   D A T A   M E M O R Y   * * * * * * *
            REG     0000H     0008H     ABSOLUTE     "REG BANK 0"
            DATA    0008H     0018H     UNIT         ?DT?UART
            BIT     0020H.0   0001H.1   UNIT         _BIT_GROUP_
            BIT     0021H.1   0000H.1   UNIT         ?BI?GETCHAR
                    0021H.2   0000H.6                *** GAP ***
            DATA    0022H     001AH     UNIT         _DATA_GROUP_
            DATA    003CH     0014H     UNIT         ?DT?MAIN
            DATA    0050H     0001H     UNIT         ?DT?EXIT0
            DATA    0051H     0001H     UNIT         ?DT?GETCHAR
            IDATA   0052H     0001H     UNIT         ?STACK

            * * * * * * *   C O D E   M E M O R Y   * * * * * * *
            CODE    0000H     0003H     ABSOLUTE     
            CODE    0003H     0003H     ABSOLUTE     
BL51 BANKED LINKER/LOCATER V6.22.2.0                                                  05/25/2023  20:47:41  PAGE 2


            CODE    0006H     0016H     UNIT         ?PR?USARTINIT?UART
            CODE    001CH     0007H     UNIT         ?PR?EXIT0INIT?EXIT0
            CODE    0023H     0003H     ABSOLUTE     
            CODE    0026H     035CH     UNIT         ?PR?PRINTF?PRINTF
            CODE    0382H     0317H     UNIT         ?PR?SCANF?SCANF
            CODE    0699H     0167H     UNIT         ?C?LIB_CODE
            CODE    0800H     008CH     UNIT         ?C_C51STARTUP
            CODE    088CH     008AH     UNIT         ?PR?_SEGDISPLAY?SEG
            CODE    0916H     0058H     UNIT         ?PR?USART?UART
            CODE    096EH     004AH     UNIT         ?PR?MAIN?MAIN
            CODE    09B8H     003FH     UNIT         ?CO?MAIN
            CODE    09F7H     002DH     UNIT         ?PR?UART_GETCHAR?UART
            CODE    0A24H     0015H     UNIT         ?PR?_STRLEN?STRLEN
            CODE    0A39H     0013H     UNIT         ?PR?_ISSPACE?ISSPACE
            CODE    0A4CH     0011H     UNIT         ?CO?SEG
            CODE    0A5DH     0011H     UNIT         ?PR?GETCHAR?GETCHAR
            CODE    0A6EH     000EH     UNIT         ?C_INITSEG
            CODE    0A7CH     000CH     UNIT         ?PR?_UART1_SENDDATA?UART
            CODE    0A88H     000BH     UNIT         ?PR?_DELAY?SEG
            CODE    0A93H     0005H     UNIT         ?PR?_PUTCHAR?UART
            CODE    0A98H     0005H     UNIT         ?PR?GETCHAR?UNGETCHAR
            CODE    0A9DH     0004H     UNIT         ?PR?EXIT0_INTR?EXIT0
            CODE    0AA1H     0003H     UNIT         ?PR?_GETKEY?UART



OVERLAY MAP OF MODULE:   .\Objects\uart (MAIN)


SEGMENT                             BIT_GROUP          DATA_GROUP 
  +--> CALLED SEGMENT            START    LENGTH     START    LENGTH
--------------------------------------------------------------------
?C_C51STARTUP                    -----    -----      -----    -----
  +--> ?PR?MAIN?MAIN
  +--> ?C_INITSEG

?PR?MAIN?MAIN                    -----    -----      -----    -----
  +--> ?PR?USARTINIT?UART
  +--> ?PR?EXIT0INIT?EXIT0
  +--> ?CO?MAIN
  +--> ?PR?PRINTF?PRINTF
  +--> ?PR?SCANF?SCANF
  +--> ?PR?_STRLEN?STRLEN
  +--> ?PR?_SEGDISPLAY?SEG

?PR?PRINTF?PRINTF                0020H.0  0001H.1    0022H    0014H
  +--> ?PR?_PUTCHAR?UART

?PR?_PUTCHAR?UART                -----    -----      -----    -----
  +--> ?PR?_UART1_SENDDATA?UART

?PR?SCANF?SCANF                  0020H.0  0000H.6    0022H    001AH
  +--> ?PR?GETCHAR?UNGETCHAR
  +--> ?PR?_ISSPACE?ISSPACE
  +--> ?PR?GETCHAR?GETCHAR

?PR?GETCHAR?GETCHAR              -----    -----      -----    -----
BL51 BANKED LINKER/LOCATER V6.22.2.0                                                  05/25/2023  20:47:41  PAGE 3


  +--> ?PR?_GETKEY?UART
  +--> ?PR?_PUTCHAR?UART

?PR?_GETKEY?UART                 -----    -----      -----    -----
  +--> ?PR?UART_GETCHAR?UART

?PR?_SEGDISPLAY?SEG              -----    -----      0022H    0007H
  +--> ?PR?_STRLEN?STRLEN
  +--> ?CO?SEG
  +--> ?PR?_DELAY?SEG



SYMBOL TABLE OF MODULE:  .\Objects\uart (MAIN)

  VALUE           TYPE          NAME
  ----------------------------------

  -------         MODULE        MAIN
  C:0000H         SYMBOL        _ICE_DUMMY_
  D:0090H         PUBLIC        P1
  D:00B0H         PUBLIC        P3
  D:00A8H         PUBLIC        IE
  D:00B8H         PUBLIC        IP
  C:096EH         PUBLIC        main
  D:0098H         PUBLIC        SCON
  D:0088H         PUBLIC        TCON
  D:003CH         PUBLIC        a
  D:00C8H         PUBLIC        T2CON
  D:00D0H         PUBLIC        PSW
  -------         PROC          MAIN
  C:096EH         LINE#         12
  C:096EH         LINE#         13
  C:0971H         LINE#         14
  C:0974H         LINE#         15
  C:0974H         LINE#         16
  C:097DH         LINE#         17
  C:098FH         LINE#         18
  C:09A5H         LINE#         19
  C:09A8H         LINE#         20
  C:09ADH         LINE#         21
  C:09B6H         LINE#         22
  -------         ENDPROC       MAIN
  -------         ENDMOD        MAIN

  -------         MODULE        UART
  C:0000H         SYMBOL        _ICE_DUMMY_
  D:0090H         PUBLIC        P1
  C:09F7H         PUBLIC        uart_getchar
  D:00B0H         PUBLIC        P3
  B:00A8H.7       PUBLIC        EA
  D:0008H         PUBLIC        uart_rx
  D:00A8H         PUBLIC        IE
  C:0916H         PUBLIC        Usart
  B:00A8H.4       PUBLIC        ES
  D:00B8H         PUBLIC        IP
  B:0098H.0       PUBLIC        RI
BL51 BANKED LINKER/LOCATER V6.22.2.0                                                  05/25/2023  20:47:41  PAGE 4


  B:0098H.1       PUBLIC        TI
  C:0006H         PUBLIC        UsartInit
  D:001CH         PUBLIC        uart_rx_cnt
  D:0099H         PUBLIC        SBUF
  D:0087H         PUBLIC        PCON
  D:0098H         PUBLIC        SCON
  D:0089H         PUBLIC        TMOD
  D:0088H         PUBLIC        TCON
  D:001EH         PUBLIC        uart_rx_rp
  D:008DH         PUBLIC        TH1
  D:008BH         PUBLIC        TL1
  D:001FH         PUBLIC        uart_rx_wp
  B:0088H.6       PUBLIC        TR1
  C:0A7CH         PUBLIC        _UART1_SendData
  D:00C8H         PUBLIC        T2CON
  C:0AA1H         PUBLIC        _getkey
  D:00D0H         PUBLIC        PSW
  C:0A93H         PUBLIC        _putchar
  -------         PROC          USARTINIT
  C:0006H         LINE#         9
  C:0006H         LINE#         10
  C:0006H         LINE#         11
  C:0009H         LINE#         12
  C:000CH         LINE#         13
  C:000FH         LINE#         14
  C:0012H         LINE#         15
  C:0015H         LINE#         16
  C:0017H         LINE#         17
  C:0019H         LINE#         18
  C:001BH         LINE#         19
  -------         ENDPROC       USARTINIT
  -------         PROC          _UART1_SENDDATA
  D:0007H         SYMBOL        c
  C:0A7CH         LINE#         21
  C:0A7CH         LINE#         22
  C:0A7EH         LINE#         23
  C:0A80H         LINE#         24
  C:0A83H         LINE#         25
  C:0A85H         LINE#         26
  C:0A87H         LINE#         27
  -------         ENDPROC       _UART1_SENDDATA
  -------         PROC          _PUTCHAR
  D:0006H         SYMBOL        c
  C:0A93H         LINE#         29
  C:0A95H         LINE#         30
  -------         ENDPROC       _PUTCHAR
  -------         PROC          UART_GETCHAR
  -------         DO            
  D:0003H         SYMBOL        ch
  -------         ENDDO         
  C:09F7H         LINE#         34
  C:09F7H         LINE#         36
  C:09FDH         LINE#         37
  C:09FFH         LINE#         38
  C:0A06H         LINE#         39
  C:0A17H         LINE#         40
  C:0A1FH         LINE#         41
BL51 BANKED LINKER/LOCATER V6.22.2.0                                                  05/25/2023  20:47:41  PAGE 5


  C:0A21H         LINE#         42
  C:0A23H         LINE#         43
  -------         ENDPROC       UART_GETCHAR
  -------         PROC          _GETKEY
  C:0AA1H         LINE#         45
  C:0AA1H         LINE#         46
  -------         ENDPROC       _GETKEY
  -------         PROC          USART
  C:0916H         LINE#         50
  C:0929H         LINE#         51
  C:092BH         LINE#         52
  C:092EH         LINE#         53
  C:0930H         LINE#         54
  C:093BH         LINE#         55
  C:0942H         LINE#         56
  C:0953H         LINE#         57
  C:095BH         LINE#         58
  C:095BH         LINE#         59
  C:095BH         LINE#         60
  C:095DH         LINE#         61
  -------         ENDPROC       USART
  -------         ENDMOD        UART

  -------         MODULE        SEG
  C:0000H         SYMBOL        _ICE_DUMMY_
  D:0080H         PUBLIC        P0
  D:0090H         PUBLIC        P1
  D:00B0H         PUBLIC        P3
  D:00A8H         PUBLIC        IE
  C:0A88H         PUBLIC        _delay
  D:00B8H         PUBLIC        IP
  D:0098H         PUBLIC        SCON
  D:0088H         PUBLIC        TCON
  C:088CH         PUBLIC        _segdisplay
  D:00C8H         PUBLIC        T2CON
  C:0A4CH         PUBLIC        segduan
  D:00D0H         PUBLIC        PSW
  -------         PROC          _DELAY
  D:0006H         SYMBOL        i
  C:0A88H         LINE#         7
  C:0A88H         LINE#         8
  C:0A88H         LINE#         9
  C:0A92H         LINE#         10
  -------         ENDPROC       _DELAY
  -------         PROC          _SEGDISPLAY
  D:0022H         SYMBOL        a
  -------         DO            
  D:0025H         SYMBOL        i
  D:0026H         SYMBOL        j
  D:0027H         SYMBOL        count
  -------         ENDDO         
  C:088CH         LINE#         13
  C:0892H         LINE#         15
  C:0895H         LINE#         17
  C:08A8H         LINE#         18
  C:08ADH         LINE#         19
  C:08B0H         LINE#         20
BL51 BANKED LINKER/LOCATER V6.22.2.0                                                  05/25/2023  20:47:41  PAGE 6


  C:08C0H         LINE#         21
  C:08EDH         LINE#         22
  C:08F4H         LINE#         23
  C:08F7H         LINE#         24
  C:0900H         LINE#         25
  C:0911H         LINE#         26
  C:0915H         LINE#         27
  -------         ENDPROC       _SEGDISPLAY
  -------         ENDMOD        SEG

  -------         MODULE        EXIT0
  C:0000H         SYMBOL        _ICE_DUMMY_
  D:0090H         PUBLIC        P1
  D:00B0H         PUBLIC        P3
  B:00A8H.7       PUBLIC        EA
  D:00A8H         PUBLIC        IE
  D:00B8H         PUBLIC        IP
  D:0050H         PUBLIC        flag
  D:0098H         PUBLIC        SCON
  D:0088H         PUBLIC        TCON
  B:00A8H.0       PUBLIC        EX0
  B:0088H.0       PUBLIC        IT0
  C:001CH         PUBLIC        Exit0Init
  D:00C8H         PUBLIC        T2CON
  C:0A9DH         PUBLIC        Exit0_intr
  D:00D0H         PUBLIC        PSW
  -------         PROC          EXIT0INIT
  C:001CH         LINE#         5
  C:001CH         LINE#         6
  C:001CH         LINE#         7
  C:001EH         LINE#         8
  C:0020H         LINE#         9
  C:0022H         LINE#         10
  -------         ENDPROC       EXIT0INIT
  -------         PROC          EXIT0_INTR
  C:0A9DH         LINE#         12
  C:0A9DH         LINE#         13
  C:0AA0H         LINE#         14
  -------         ENDPROC       EXIT0_INTR
  -------         ENDMOD        EXIT0

  -------         MODULE        ?C?CLDOPTR
  C:0699H         PUBLIC        ?C?CLDOPTR
  -------         ENDMOD        ?C?CLDOPTR

  -------         MODULE        ?C?UIDIV
  C:06C6H         PUBLIC        ?C?UIDIV
  -------         ENDMOD        ?C?UIDIV

  -------         MODULE        PRINTF
  D:0022H         PUBLIC        ?_PRINTF517?BYTE
  D:0022H         PUBLIC        ?_PRINTF?BYTE
  D:0022H         PUBLIC        ?_SPRINTF517?BYTE
  D:0022H         PUBLIC        ?_SPRINTF?BYTE
  C:0088H         PUBLIC        _PRINTF
  C:0088H         PUBLIC        _PRINTF517
  C:0082H         PUBLIC        _SPRINTF
BL51 BANKED LINKER/LOCATER V6.22.2.0                                                  05/25/2023  20:47:41  PAGE 7


  C:0082H         PUBLIC        _SPRINTF517
  -------         ENDMOD        PRINTF

  -------         MODULE        SCANF
  D:0022H         PUBLIC        ?_SCANF517?BYTE
  D:0022H         PUBLIC        ?_SCANF?BYTE
  D:0022H         PUBLIC        ?_SSCANF517?BYTE
  D:0022H         PUBLIC        ?_SSCANF?BYTE
  C:0404H         PUBLIC        _SCANF
  C:0404H         PUBLIC        _SCANF517
  C:0400H         PUBLIC        _SSCANF
  C:0400H         PUBLIC        _SSCANF517
  -------         ENDMOD        SCANF

  -------         MODULE        STRLEN
  C:0A24H         PUBLIC        _STRLEN
  -------         ENDMOD        STRLEN

  -------         MODULE        ?C?CLDPTR
  C:071BH         PUBLIC        ?C?CLDPTR
  -------         ENDMOD        ?C?CLDPTR

  -------         MODULE        ?C?CSTPTR
  C:0734H         PUBLIC        ?C?CSTPTR
  -------         ENDMOD        ?C?CSTPTR

  -------         MODULE        ?C?ISTPTR
  C:0746H         PUBLIC        ?C?ISTPTR
  -------         ENDMOD        ?C?ISTPTR

  -------         MODULE        ?C?LNEG
  C:0765H         PUBLIC        ?C?LNEG
  -------         ENDMOD        ?C?LNEG

  -------         MODULE        ?C?LSTPTR
  C:0773H         PUBLIC        ?C?LSTPTR
  -------         ENDMOD        ?C?LSTPTR

  -------         MODULE        ?C?PLDIDATA
  C:078DH         PUBLIC        ?C?PLDIDATA
  -------         ENDMOD        ?C?PLDIDATA

  -------         MODULE        ?C?PLDIIDATA
  C:0796H         PUBLIC        ?C?PLDIIDATA
  -------         ENDMOD        ?C?PLDIIDATA

  -------         MODULE        ?C?PILDIDATA
  C:07A6H         PUBLIC        ?C?PILDIDATA
  -------         ENDMOD        ?C?PILDIDATA

  -------         MODULE        ?C?CCASE
  C:07B6H         PUBLIC        ?C?CCASE
  -------         ENDMOD        ?C?CCASE

  -------         MODULE        GETCHAR
  B:0021H.1       PUBLIC        ?C?CHARLOADED
  D:0051H         PUBLIC        ?_UNGETCHAR?BYTE
BL51 BANKED LINKER/LOCATER V6.22.2.0                                                  05/25/2023  20:47:41  PAGE 8


  C:0A5DH         PUBLIC        GETCHAR
  -------         ENDMOD        GETCHAR

  -------         MODULE        UNGETC
  C:0A98H         PUBLIC        _UNGETCHAR
  -------         ENDMOD        UNGETC

  -------         MODULE        ISSPACE
  C:0A39H         PUBLIC        _isspace
  -------         ENDMOD        ISSPACE

  -------         MODULE        ?C?LSTIDATA
  C:07DCH         PUBLIC        ?C?LSTIDATA
  -------         ENDMOD        ?C?LSTIDATA

  -------         MODULE        ?C?LSTXDATA
  C:07E8H         PUBLIC        ?C?LSTXDATA
  -------         ENDMOD        ?C?LSTXDATA

  -------         MODULE        ?C?LSTPDATA
  C:07F4H         PUBLIC        ?C?LSTPDATA
  -------         ENDMOD        ?C?LSTPDATA

Program Size: data=82.2 xdata=0 code=2724
LINK/LOCATE RUN COMPLETE.  0 WARNING(S),  0 ERROR(S)
